{
  "contractName": "Ownable",
  "abi": [
    {
      "constant": true,
      "inputs": [],
      "name": "owner",
      "outputs": [
        {
          "name": "",
          "type": "address"
        }
      ],
      "payable": false,
      "stateMutability": "view",
      "type": "function"
    },
    {
      "constant": true,
      "inputs": [],
      "name": "newOwner",
      "outputs": [
        {
          "name": "",
          "type": "address"
        }
      ],
      "payable": false,
      "stateMutability": "view",
      "type": "function"
    },
    {
      "inputs": [],
      "payable": false,
      "stateMutability": "nonpayable",
      "type": "constructor"
    },
    {
      "anonymous": false,
      "inputs": [
        {
          "indexed": true,
          "name": "previousOwner",
          "type": "address"
        },
        {
          "indexed": true,
          "name": "newOwner",
          "type": "address"
        }
      ],
      "name": "OwnershipTransferred",
      "type": "event"
    },
    {
      "constant": false,
      "inputs": [
        {
          "name": "_newOwner",
          "type": "address"
        }
      ],
      "name": "transferOwnership",
      "outputs": [],
      "payable": false,
      "stateMutability": "nonpayable",
      "type": "function"
    },
    {
      "constant": false,
      "inputs": [
        {
          "name": "_newOwner",
          "type": "address"
        }
      ],
      "name": "transferOwnershipUnsafe",
      "outputs": [],
      "payable": false,
      "stateMutability": "nonpayable",
      "type": "function"
    },
    {
      "constant": false,
      "inputs": [],
      "name": "claimOwnership",
      "outputs": [],
      "payable": false,
      "stateMutability": "nonpayable",
      "type": "function"
    }
  ],
  "bytecode": "0x608060405234801561001057600080fd5b50336000806101000a81548173ffffffffffffffffffffffffffffffffffffffff021916908373ffffffffffffffffffffffffffffffffffffffff160217905550610793806100606000396000f3fe608060405260043610610067576000357c0100000000000000000000000000000000000000000000000000000000900480634e71e0c81461006c5780638da5cb5b14610083578063a824c9d2146100da578063d4ee1d901461012b578063f2fde38b14610182575b600080fd5b34801561007857600080fd5b506100816101d3565b005b34801561008f57600080fd5b506100986102a3565b604051808273ffffffffffffffffffffffffffffffffffffffff1673ffffffffffffffffffffffffffffffffffffffff16815260200191505060405180910390f35b3480156100e657600080fd5b50610129600480360360208110156100fd57600080fd5b81019080803573ffffffffffffffffffffffffffffffffffffffff1690602001909291905050506102c8565b005b34801561013757600080fd5b5061014061043d565b604051808273ffffffffffffffffffffffffffffffffffffffff1673ffffffffffffffffffffffffffffffffffffffff16815260200191505060405180910390f35b34801561018e57600080fd5b506101d1600480360360208110156101a557600080fd5b81019080803573ffffffffffffffffffffffffffffffffffffffff169060200190929190505050610463565b005b600160009054906101000a900473ffffffffffffffffffffffffffffffffffffffff1673ffffffffffffffffffffffffffffffffffffffff163373ffffffffffffffffffffffffffffffffffffffff16141515610298576040517f08c379a00000000000000000000000000000000000000000000000000000000081526004018080602001828103825260178152602001807f5265737472696374656420746f206e6577206f776e657200000000000000000081525060200191505060405180910390fd5b6102a133610610565b565b6000809054906101000a900473ffffffffffffffffffffffffffffffffffffffff1681565b6000809054906101000a900473ffffffffffffffffffffffffffffffffffffffff1673ffffffffffffffffffffffffffffffffffffffff163373ffffffffffffffffffffffffffffffffffffffff1614151561038c576040517f08c379a00000000000000000000000000000000000000000000000000000000081526004018080602001828103825260138152602001807f5265737472696374656420746f206f776e65720000000000000000000000000081525060200191505060405180910390fd5b600073ffffffffffffffffffffffffffffffffffffffff168173ffffffffffffffffffffffffffffffffffffffff1614151515610431576040517f08c379a00000000000000000000000000000000000000000000000000000000081526004018080602001828103825260118152602001807f4e6577206f776e6572206973207a65726f00000000000000000000000000000081525060200191505060405180910390fd5b61043a81610610565b50565b600160009054906101000a900473ffffffffffffffffffffffffffffffffffffffff1681565b6000809054906101000a900473ffffffffffffffffffffffffffffffffffffffff1673ffffffffffffffffffffffffffffffffffffffff163373ffffffffffffffffffffffffffffffffffffffff16141515610527576040517f08c379a00000000000000000000000000000000000000000000000000000000081526004018080602001828103825260138152602001807f5265737472696374656420746f206f776e65720000000000000000000000000081525060200191505060405180910390fd5b600073ffffffffffffffffffffffffffffffffffffffff168173ffffffffffffffffffffffffffffffffffffffff16141515156105cc576040517f08c379a00000000000000000000000000000000000000000000000000000000081526004018080602001828103825260118152602001807f4e6577206f776e6572206973207a65726f00000000000000000000000000000081525060200191505060405180910390fd5b80600160006101000a81548173ffffffffffffffffffffffffffffffffffffffff021916908373ffffffffffffffffffffffffffffffffffffffff16021790555050565b6000809054906101000a900473ffffffffffffffffffffffffffffffffffffffff1673ffffffffffffffffffffffffffffffffffffffff168173ffffffffffffffffffffffffffffffffffffffff16141515610722578073ffffffffffffffffffffffffffffffffffffffff166000809054906101000a900473ffffffffffffffffffffffffffffffffffffffff1673ffffffffffffffffffffffffffffffffffffffff167f8be0079c531659141344cd1fd0a4f28419497f9722a3daafe3b4186f6b6457e060405160405180910390a3806000806101000a81548173ffffffffffffffffffffffffffffffffffffffff021916908373ffffffffffffffffffffffffffffffffffffffff1602179055505b6000600160006101000a81548173ffffffffffffffffffffffffffffffffffffffff021916908373ffffffffffffffffffffffffffffffffffffffff1602179055505056fea165627a7a72305820ee14788bec4be858b62c1cb0ddfed125697017b11d9e075120afca320a09c3a50029",
  "source": "pragma solidity 0.5.1;\n\n/// @title Ownable\n/// @dev Provide a simple access control with a single authority: the owner\ncontract Ownable {\n\n    // Ethereum address of current owner\n    address public owner;\n\n    // Ethereum address of the next owner\n    // (has to claim ownership first to become effective owner)\n    address public newOwner;\n\n    // @dev Log event on ownership transferred\n    // @param previousOwner Ethereum address of previous owner\n    // @param newOwner Ethereum address of new owner\n    event OwnershipTransferred(\n        address indexed previousOwner,\n        address indexed newOwner\n    );\n\n    /// @dev Forbid call by anyone but owner\n    modifier onlyOwner() {\n        require(msg.sender == owner, \"Restricted to owner\");\n        _;\n    }\n\n    /// @dev Deployer account becomes initial owner\n    constructor() public {\n        owner = msg.sender;\n    }\n\n    /// @dev  Transfer ownership to a new Ethereum account (safe method)\n    ///       Note: the new owner has to claim his ownership to become effective owner.\n    /// @param _newOwner  Ethereum address to transfer ownership to\n    function transferOwnership(address _newOwner) public onlyOwner {\n        require(_newOwner != address(0x0), \"New owner is zero\");\n\n        newOwner = _newOwner;\n    }\n\n    /// @dev  Transfer ownership to a new Ethereum account (unsafe method)\n    ///       Note: It's strongly recommended to use the safe variant via transferOwnership\n    ///             and claimOwnership, to prevent accidental transfers to a wrong address.\n    /// @param _newOwner  Ethereum address to transfer ownership to\n    function transferOwnershipUnsafe(address _newOwner) public onlyOwner {\n        require(_newOwner != address(0x0), \"New owner is zero\");\n\n        _transferOwnership(_newOwner);\n    }\n\n    /// @dev  Become effective owner (if dedicated so by previous owner)\n    function claimOwnership() public {\n        require(msg.sender == newOwner, \"Restricted to new owner\");\n\n        _transferOwnership(msg.sender);\n    }\n\n    /// @dev  Transfer ownership (internal method)\n    /// @param _newOwner  Ethereum address to transfer ownership to\n    function _transferOwnership(address _newOwner) private {\n        if (_newOwner != owner) {\n            emit OwnershipTransferred(owner, _newOwner);\n\n            owner = _newOwner;\n        }\n        newOwner = address(0x0);\n    }\n\n}\n",
  "sourcePath": "/home/lukas/blockchain/TBD-MCART/contracts/Ownable.sol",
  "compiler": {
    "name": "solc",
    "version": "0.5.1+commit.c8a2cb62.Emscripten.clang"
  },
  "schemaVersion": "3.0.21",
  "updatedAt": "2020-01-18T15:15:44.623Z",
  "devdoc": {
    "details": "Provide a simple access control with a single authority: the owner",
    "methods": {
      "claimOwnership()": {
        "details": "Become effective owner (if dedicated so by previous owner)"
      },
      "constructor": {
        "details": "Deployer account becomes initial owner"
      },
      "transferOwnership(address)": {
        "details": "Transfer ownership to a new Ethereum account (safe method)       Note: the new owner has to claim his ownership to become effective owner.",
        "params": {
          "_newOwner": "Ethereum address to transfer ownership to"
        }
      },
      "transferOwnershipUnsafe(address)": {
        "details": "Transfer ownership to a new Ethereum account (unsafe method)       Note: It's strongly recommended to use the safe variant via transferOwnership             and claimOwnership, to prevent accidental transfers to a wrong address.",
        "params": {
          "_newOwner": "Ethereum address to transfer ownership to"
        }
      }
    },
    "title": "Ownable"
  },
  "userdoc": {
    "methods": {}
  }
}