{
  "contractName": "Whitelist",
  "abi": [
    {
      "constant": true,
      "inputs": [
        {
          "name": "",
          "type": "address"
        }
      ],
      "name": "isWhitelisted",
      "outputs": [
        {
          "name": "",
          "type": "bool"
        }
      ],
      "payable": false,
      "stateMutability": "view",
      "type": "function"
    },
    {
      "constant": false,
      "inputs": [],
      "name": "claimOwnership",
      "outputs": [],
      "payable": false,
      "stateMutability": "nonpayable",
      "type": "function"
    },
    {
      "constant": true,
      "inputs": [],
      "name": "owner",
      "outputs": [
        {
          "name": "",
          "type": "address"
        }
      ],
      "payable": false,
      "stateMutability": "view",
      "type": "function"
    },
    {
      "constant": false,
      "inputs": [
        {
          "name": "_newOwner",
          "type": "address"
        }
      ],
      "name": "transferOwnershipUnsafe",
      "outputs": [],
      "payable": false,
      "stateMutability": "nonpayable",
      "type": "function"
    },
    {
      "constant": true,
      "inputs": [],
      "name": "newOwner",
      "outputs": [
        {
          "name": "",
          "type": "address"
        }
      ],
      "payable": false,
      "stateMutability": "view",
      "type": "function"
    },
    {
      "constant": false,
      "inputs": [
        {
          "name": "_newOwner",
          "type": "address"
        }
      ],
      "name": "transferOwnership",
      "outputs": [],
      "payable": false,
      "stateMutability": "nonpayable",
      "type": "function"
    },
    {
      "anonymous": false,
      "inputs": [
        {
          "indexed": true,
          "name": "admin",
          "type": "address"
        },
        {
          "indexed": true,
          "name": "investor",
          "type": "address"
        }
      ],
      "name": "InvestorAdded",
      "type": "event"
    },
    {
      "anonymous": false,
      "inputs": [
        {
          "indexed": true,
          "name": "admin",
          "type": "address"
        },
        {
          "indexed": true,
          "name": "investor",
          "type": "address"
        }
      ],
      "name": "InvestorRemoved",
      "type": "event"
    },
    {
      "anonymous": false,
      "inputs": [
        {
          "indexed": true,
          "name": "previousOwner",
          "type": "address"
        },
        {
          "indexed": true,
          "name": "newOwner",
          "type": "address"
        }
      ],
      "name": "OwnershipTransferred",
      "type": "event"
    },
    {
      "constant": false,
      "inputs": [
        {
          "name": "_investors",
          "type": "address[]"
        }
      ],
      "name": "addToWhitelist",
      "outputs": [],
      "payable": false,
      "stateMutability": "nonpayable",
      "type": "function"
    },
    {
      "constant": false,
      "inputs": [
        {
          "name": "_investors",
          "type": "address[]"
        }
      ],
      "name": "removeFromWhitelist",
      "outputs": [],
      "payable": false,
      "stateMutability": "nonpayable",
      "type": "function"
    }
  ],
  "bytecode": "0x6080604052336000806101000a81548173ffffffffffffffffffffffffffffffffffffffff021916908373ffffffffffffffffffffffffffffffffffffffff160217905550610e1e806100536000396000f3fe608060405260043610610088576000357c0100000000000000000000000000000000000000000000000000000000900480633af32abf1461008d5780634e71e0c8146100f6578063548db1741461010d5780637f649783146101935780638da5cb5b14610219578063a824c9d214610270578063d4ee1d90146102c1578063f2fde38b14610318575b600080fd5b34801561009957600080fd5b506100dc600480360360208110156100b057600080fd5b81019080803573ffffffffffffffffffffffffffffffffffffffff169060200190929190505050610369565b604051808215151515815260200191505060405180910390f35b34801561010257600080fd5b5061010b610389565b005b34801561011957600080fd5b506101916004803603602081101561013057600080fd5b810190808035906020019064010000000081111561014d57600080fd5b82018360208201111561015f57600080fd5b8035906020019184602083028401116401000000008311171561018157600080fd5b9091929391929390505050610459565b005b34801561019f57600080fd5b50610217600480360360208110156101b657600080fd5b81019080803590602001906401000000008111156101d357600080fd5b8201836020820111156101e557600080fd5b8035906020019184602083028401116401000000008311171561020757600080fd5b90919293919293905050506106c3565b005b34801561022557600080fd5b5061022e61092e565b604051808273ffffffffffffffffffffffffffffffffffffffff1673ffffffffffffffffffffffffffffffffffffffff16815260200191505060405180910390f35b34801561027c57600080fd5b506102bf6004803603602081101561029357600080fd5b81019080803573ffffffffffffffffffffffffffffffffffffffff169060200190929190505050610953565b005b3480156102cd57600080fd5b506102d6610ac8565b604051808273ffffffffffffffffffffffffffffffffffffffff1673ffffffffffffffffffffffffffffffffffffffff16815260200191505060405180910390f35b34801561032457600080fd5b506103676004803603602081101561033b57600080fd5b81019080803573ffffffffffffffffffffffffffffffffffffffff169060200190929190505050610aee565b005b60026020528060005260406000206000915054906101000a900460ff1681565b600160009054906101000a900473ffffffffffffffffffffffffffffffffffffffff1673ffffffffffffffffffffffffffffffffffffffff163373ffffffffffffffffffffffffffffffffffffffff1614151561044e576040517f08c379a00000000000000000000000000000000000000000000000000000000081526004018080602001828103825260178152602001807f5265737472696374656420746f206e6577206f776e657200000000000000000081525060200191505060405180910390fd5b61045733610c9b565b565b6000809054906101000a900473ffffffffffffffffffffffffffffffffffffffff1673ffffffffffffffffffffffffffffffffffffffff163373ffffffffffffffffffffffffffffffffffffffff1614151561051d576040517f08c379a00000000000000000000000000000000000000000000000000000000081526004018080602001828103825260138152602001807f5265737472696374656420746f206f776e65720000000000000000000000000081525060200191505060405180910390fd5b60008090505b828290508110156106be5760026000848484818110151561054057fe5b9050602002013573ffffffffffffffffffffffffffffffffffffffff1673ffffffffffffffffffffffffffffffffffffffff1673ffffffffffffffffffffffffffffffffffffffff16815260200190815260200160002060009054906101000a900460ff16156106b15760006002600085858581811015156105be57fe5b9050602002013573ffffffffffffffffffffffffffffffffffffffff1673ffffffffffffffffffffffffffffffffffffffff1673ffffffffffffffffffffffffffffffffffffffff16815260200190815260200160002060006101000a81548160ff021916908315150217905550828282818110151561063a57fe5b9050602002013573ffffffffffffffffffffffffffffffffffffffff1673ffffffffffffffffffffffffffffffffffffffff163373ffffffffffffffffffffffffffffffffffffffff167fd8755221287ca1f6b28807977a086f5534d9e02ea27ebad003d7cb1a95659a4660405160405180910390a35b8080600101915050610523565b505050565b6000809054906101000a900473ffffffffffffffffffffffffffffffffffffffff1673ffffffffffffffffffffffffffffffffffffffff163373ffffffffffffffffffffffffffffffffffffffff16141515610787576040517f08c379a00000000000000000000000000000000000000000000000000000000081526004018080602001828103825260138152602001807f5265737472696374656420746f206f776e65720000000000000000000000000081525060200191505060405180910390fd5b60008090505b82829050811015610929576002600084848481811015156107aa57fe5b9050602002013573ffffffffffffffffffffffffffffffffffffffff1673ffffffffffffffffffffffffffffffffffffffff1673ffffffffffffffffffffffffffffffffffffffff16815260200190815260200160002060009054906101000a900460ff16151561091c57600160026000858585818110151561082957fe5b9050602002013573ffffffffffffffffffffffffffffffffffffffff1673ffffffffffffffffffffffffffffffffffffffff1673ffffffffffffffffffffffffffffffffffffffff16815260200190815260200160002060006101000a81548160ff02191690831515021790555082828281811015156108a557fe5b9050602002013573ffffffffffffffffffffffffffffffffffffffff1673ffffffffffffffffffffffffffffffffffffffff163373ffffffffffffffffffffffffffffffffffffffff167fe99183cc0b1657b54afa611991294ec1e4c458d7c36910518e2a5b76b2b6e73f60405160405180910390a35b808060010191505061078d565b505050565b6000809054906101000a900473ffffffffffffffffffffffffffffffffffffffff1681565b6000809054906101000a900473ffffffffffffffffffffffffffffffffffffffff1673ffffffffffffffffffffffffffffffffffffffff163373ffffffffffffffffffffffffffffffffffffffff16141515610a17576040517f08c379a00000000000000000000000000000000000000000000000000000000081526004018080602001828103825260138152602001807f5265737472696374656420746f206f776e65720000000000000000000000000081525060200191505060405180910390fd5b600073ffffffffffffffffffffffffffffffffffffffff168173ffffffffffffffffffffffffffffffffffffffff1614151515610abc576040517f08c379a00000000000000000000000000000000000000000000000000000000081526004018080602001828103825260118152602001807f4e6577206f776e6572206973207a65726f00000000000000000000000000000081525060200191505060405180910390fd5b610ac581610c9b565b50565b600160009054906101000a900473ffffffffffffffffffffffffffffffffffffffff1681565b6000809054906101000a900473ffffffffffffffffffffffffffffffffffffffff1673ffffffffffffffffffffffffffffffffffffffff163373ffffffffffffffffffffffffffffffffffffffff16141515610bb2576040517f08c379a00000000000000000000000000000000000000000000000000000000081526004018080602001828103825260138152602001807f5265737472696374656420746f206f776e65720000000000000000000000000081525060200191505060405180910390fd5b600073ffffffffffffffffffffffffffffffffffffffff168173ffffffffffffffffffffffffffffffffffffffff1614151515610c57576040517f08c379a00000000000000000000000000000000000000000000000000000000081526004018080602001828103825260118152602001807f4e6577206f776e6572206973207a65726f00000000000000000000000000000081525060200191505060405180910390fd5b80600160006101000a81548173ffffffffffffffffffffffffffffffffffffffff021916908373ffffffffffffffffffffffffffffffffffffffff16021790555050565b6000809054906101000a900473ffffffffffffffffffffffffffffffffffffffff1673ffffffffffffffffffffffffffffffffffffffff168173ffffffffffffffffffffffffffffffffffffffff16141515610dad578073ffffffffffffffffffffffffffffffffffffffff166000809054906101000a900473ffffffffffffffffffffffffffffffffffffffff1673ffffffffffffffffffffffffffffffffffffffff167f8be0079c531659141344cd1fd0a4f28419497f9722a3daafe3b4186f6b6457e060405160405180910390a3806000806101000a81548173ffffffffffffffffffffffffffffffffffffffff021916908373ffffffffffffffffffffffffffffffffffffffff1602179055505b6000600160006101000a81548173ffffffffffffffffffffffffffffffffffffffff021916908373ffffffffffffffffffffffffffffffffffffffff1602179055505056fea165627a7a723058201509fe4749f14b03a554724865f5c86ef07b40f0eec271ec86cfbbe5489cf2cf0029",
  "source": "pragma solidity 0.5.1;\n\nimport \"./Ownable.sol\";\n\n\n/// @title Whitelist\n/// @author STOKR\ncontract Whitelist is Ownable {\n\n    // Set of Whitelisted addresses\n    mapping(address => bool) public isWhitelisted;\n\n    /// @dev Log entry on investor added set\n    /// @param admin An Ethereum address\n    /// @param investor An Ethereum address\n    event InvestorAdded(address indexed admin, address indexed investor);\n\n    /// @dev Log entry on investor removed from set\n    /// @param admin An Ethereum address\n    /// @param investor An Ethereum address\n    event InvestorRemoved(address indexed admin, address indexed investor);\n\n\n    /// @dev Add investor to set of whitelisted addresses\n    /// @param _investors A list where each entry is an Ethereum address\n    function addToWhitelist(address[] calldata _investors) external onlyOwner {\n        for (uint256 i = 0; i < _investors.length; i++) {\n            if (!isWhitelisted[_investors[i]]) {\n                isWhitelisted[_investors[i]] = true;\n\n                emit InvestorAdded(msg.sender, _investors[i]);\n            }\n        }\n    }\n\n    /// @dev Remove investor from set of whitelisted addresses\n    /// @param _investors A list where each entry is an Ethereum address\n    function removeFromWhitelist(address[] calldata _investors) external onlyOwner\n     {\n        for (uint256 i = 0; i < _investors.length; i++) {\n            if (isWhitelisted[_investors[i]]) {\n                isWhitelisted[_investors[i]] = false;\n\n                emit InvestorRemoved(msg.sender, _investors[i]);\n            }\n        }\n    }\n\n}\n",
  "sourcePath": "/home/lukas/blockchain/TBD-MCART/contracts/Whitelist.sol",
  "compiler": {
    "name": "solc",
    "version": "0.5.1+commit.c8a2cb62.Emscripten.clang"
  },
  "schemaVersion": "3.0.21",
  "updatedAt": "2020-01-18T15:15:44.624Z",
  "devdoc": {
    "author": "STOKR",
    "methods": {
      "addToWhitelist(address[])": {
        "details": "Add investor to set of whitelisted addresses",
        "params": {
          "_investors": "A list where each entry is an Ethereum address"
        }
      },
      "claimOwnership()": {
        "details": "Become effective owner (if dedicated so by previous owner)"
      },
      "removeFromWhitelist(address[])": {
        "details": "Remove investor from set of whitelisted addresses",
        "params": {
          "_investors": "A list where each entry is an Ethereum address"
        }
      },
      "transferOwnership(address)": {
        "details": "Transfer ownership to a new Ethereum account (safe method)       Note: the new owner has to claim his ownership to become effective owner.",
        "params": {
          "_newOwner": "Ethereum address to transfer ownership to"
        }
      },
      "transferOwnershipUnsafe(address)": {
        "details": "Transfer ownership to a new Ethereum account (unsafe method)       Note: It's strongly recommended to use the safe variant via transferOwnership             and claimOwnership, to prevent accidental transfers to a wrong address.",
        "params": {
          "_newOwner": "Ethereum address to transfer ownership to"
        }
      }
    },
    "title": "Whitelist"
  },
  "userdoc": {
    "methods": {}
  }
}